{
  "contractName": "Escrow",
  "abi": [
    {
      "constant": false,
      "inputs": [
        {
          "name": "_previewMessage",
          "type": "bytes32"
        }
      ],
      "name": "setPreviewMessage",
      "outputs": [],
      "payable": false,
      "stateMutability": "nonpayable",
      "type": "function"
    },
    {
      "constant": true,
      "inputs": [],
      "name": "getFundingAmount",
      "outputs": [
        {
          "name": "",
          "type": "uint256"
        }
      ],
      "payable": false,
      "stateMutability": "view",
      "type": "function"
    },
    {
      "constant": false,
      "inputs": [],
      "name": "approvePreview",
      "outputs": [],
      "payable": false,
      "stateMutability": "nonpayable",
      "type": "function"
    },
    {
      "constant": false,
      "inputs": [
        {
          "name": "_fundingAmount",
          "type": "uint256"
        }
      ],
      "name": "kill",
      "outputs": [],
      "payable": false,
      "stateMutability": "nonpayable",
      "type": "function"
    },
    {
      "constant": true,
      "inputs": [],
      "name": "getFinalMessage",
      "outputs": [
        {
          "name": "",
          "type": "bytes32"
        }
      ],
      "payable": false,
      "stateMutability": "view",
      "type": "function"
    },
    {
      "constant": true,
      "inputs": [
        {
          "name": "_previewMessage",
          "type": "string"
        }
      ],
      "name": "getPreviewMessage",
      "outputs": [
        {
          "name": "",
          "type": "bytes32"
        }
      ],
      "payable": false,
      "stateMutability": "view",
      "type": "function"
    },
    {
      "constant": true,
      "inputs": [],
      "name": "stage",
      "outputs": [
        {
          "name": "",
          "type": "uint8"
        }
      ],
      "payable": false,
      "stateMutability": "view",
      "type": "function"
    },
    {
      "constant": false,
      "inputs": [
        {
          "name": "_approved",
          "type": "bool"
        }
      ],
      "name": "contributeFunding",
      "outputs": [],
      "payable": true,
      "stateMutability": "payable",
      "type": "function"
    },
    {
      "constant": false,
      "inputs": [
        {
          "name": "_finalMessage",
          "type": "bytes32"
        }
      ],
      "name": "setFinalMessage",
      "outputs": [
        {
          "name": "",
          "type": "string"
        }
      ],
      "payable": false,
      "stateMutability": "nonpayable",
      "type": "function"
    },
    {
      "constant": true,
      "inputs": [
        {
          "name": "_agreementPrice",
          "type": "uint256"
        },
        {
          "name": "_clientAddress",
          "type": "address"
        }
      ],
      "name": "stage",
      "outputs": [
        {
          "name": "",
          "type": "uint8"
        }
      ],
      "payable": false,
      "stateMutability": "nonpayable",
      "type": "constructor"
    },
    {
      "constant": true,
      "inputs": [],
      "name": "getStage",
      "outputs": [
        {
          "name": "",
          "type": "uint256"
        }
      ],
      "payable": false,
      "stateMutability": "view",
      "type": "function"
    },
    {
      "inputs": [
        {
          "name": "_agreementPrice",
          "type": "uint256"
        },
        {
          "name": "_clientAddress",
          "type": "address"
        }
      ],
      "payable": false,
      "stateMutability": "nonpayable",
      "type": "constructor"
    }
  ],
  "bytecode": "0x606060405260008060006101000a81548160ff0219169083600381111561002257fe5b0217905550341561003257600080fd5b60405160408061086e8339810160405280805190602001909190805190602001909190505081600160000181905550806001800160006101000a81548173ffffffffffffffffffffffffffffffffffffffff021916908373ffffffffffffffffffffffffffffffffffffffff16021790555033600160020160006101000a81548173ffffffffffffffffffffffffffffffffffffffff021916908373ffffffffffffffffffffffffffffffffffffffff1602179055506000600160050160006101000a81548160ff0219169083151502179055505050610757806101176000396000f300606060405260043610610099576000357c0100000000000000000000000000000000000000000000000000000000900463ffffffff1680632da2f2011461009e578063370c4d5b146100c55780633d2e4f90146100ee57806341c0e1b5146101035780637ec465f814610118578063ba8028fa14610149578063c040e6b81461017a578063d19f8de9146101b1578063f72115d7146101bb575b600080fd5b34156100a957600080fd5b6100c36004808035600019169060200190919050506101e2565b005b34156100d057600080fd5b6100d8610281565b6040518082815260200191505060405180910390f35b34156100f957600080fd5b6101016102a0565b005b341561010e57600080fd5b6101166103d0565b005b341561012357600080fd5b61012b61046a565b60405180826000191660001916815260200191505060405180910390f35b341561015457600080fd5b61015c610504565b60405180826000191660001916815260200191505060405180910390f35b341561018557600080fd5b61018d61059e565b6040518082600381111561019d57fe5b60ff16815260200191505060405180910390f35b6101b96105b0565b005b34156101c657600080fd5b6101e0600480803560001916906020019091905050610629565b005b60018060038111156101f057fe5b6000809054906101000a900460ff16600381111561020a57fe5b14151561021357fe5b600160020160009054906101000a900473ffffffffffffffffffffffffffffffffffffffff1673ffffffffffffffffffffffffffffffffffffffff163373ffffffffffffffffffffffffffffffffffffffff1614151561026f57fe5b81600160030181600019169055505050565b60003073ffffffffffffffffffffffffffffffffffffffff1631905090565b60028060038111156102ae57fe5b6000809054906101000a900460ff1660038111156102c857fe5b1415156102d157fe5b6001800160009054906101000a900473ffffffffffffffffffffffffffffffffffffffff1673ffffffffffffffffffffffffffffffffffffffff163373ffffffffffffffffffffffffffffffffffffffff1614151561032c57fe5b60018060050160006101000a81548160ff021916908315150217905550600160020160009054906101000a900473ffffffffffffffffffffffffffffffffffffffff1673ffffffffffffffffffffffffffffffffffffffff166108fc3073ffffffffffffffffffffffffffffffffffffffff16319081150290604051600060405180830381858888f1935050505015156103c557600080fd5b6103cd6106e0565b50565b600160020160009054906101000a900473ffffffffffffffffffffffffffffffffffffffff1673ffffffffffffffffffffffffffffffffffffffff163373ffffffffffffffffffffffffffffffffffffffff1614151561042c57fe5b600160020160009054906101000a900473ffffffffffffffffffffffffffffffffffffffff1673ffffffffffffffffffffffffffffffffffffffff16ff5b6000600380600381111561047a57fe5b6000809054906101000a900460ff16600381111561049457fe5b14151561049d57fe5b6001800160009054906101000a900473ffffffffffffffffffffffffffffffffffffffff1673ffffffffffffffffffffffffffffffffffffffff163373ffffffffffffffffffffffffffffffffffffffff161415156104f857fe5b60016004015491505090565b6000600280600381111561051457fe5b6000809054906101000a900460ff16600381111561052e57fe5b14151561053757fe5b6001800160009054906101000a900473ffffffffffffffffffffffffffffffffffffffff1673ffffffffffffffffffffffffffffffffffffffff163373ffffffffffffffffffffffffffffffffffffffff1614151561059257fe5b60016003015491505090565b6000809054906101000a900460ff1681565b34600160060160003373ffffffffffffffffffffffffffffffffffffffff1673ffffffffffffffffffffffffffffffffffffffff168152602001908152602001600020819055506001600001543073ffffffffffffffffffffffffffffffffffffffff16311015151561061f57fe5b6106276106e0565b565b600180600381111561063757fe5b6000809054906101000a900460ff16600381111561065157fe5b14151561065a57fe5b600160020160009054906101000a900473ffffffffffffffffffffffffffffffffffffffff1673ffffffffffffffffffffffffffffffffffffffff163373ffffffffffffffffffffffffffffffffffffffff161415156106b657fe5b6000602060ff161115156106c657fe5b81600160040181600019169055506106dc6106e0565b5050565b60016000809054906101000a900460ff1660038111156106fc57fe5b01600381111561070857fe5b6000806101000a81548160ff0219169083600381111561072457fe5b02179055505600a165627a7a72305820f033ec9ba5507359f32e1c0e3a364b1635c0c079f7714c393e7fd4524c8cba700029",
  "source": "pragma solidity 0.4.18;\n\ncontract Escrow {\n\n    // Stage Management\n    enum Stages {\n        Funding,\n        SetStrings,\n        ApproveOrReject,\n        PayoutAndReveal\n    }\n    \n    Stages public stage = Stages.Funding;\n    \n    modifier isProvider() {\n        assert(msg.sender == agreement.providerAddress);\n        _;\n    }\n    \n    modifier isClient() {\n        assert(msg.sender == agreement.clientAddress);\n        _;\n    }\n\n    modifier atStage(Stages _stage) {\n        assert(stage == _stage);\n        _;\n    }\n    \n    modifier transitionNext() {\n        _;\n        nextStage();\n    }\n\n    // Agreement\n    struct Agreement {\n        uint256 agreementPrice;\n        address clientAddress;\n        address providerAddress;\n        bytes32 previewMessage;\n        bytes32 finalMessage;\n        bool approved;\n        mapping (address => uint256) funders;\n    }\n    \n    Agreement agreement;\n\n    // Contract\n    function Escrow(uint256 _agreementPrice, address _clientAddress) public {\n        agreement.agreementPrice = _agreementPrice;\n        agreement.clientAddress = _clientAddress;\n        agreement.providerAddress = msg.sender;\n        agreement.approved = false;\n    }\n    \n    // Funding\n    function contributeFunding() public payable {\n        agreement.funders[msg.sender] = msg.value;\n        assert(this.balance >= agreement.agreementPrice);\n        nextStage();\n    }\n\n    // Provider\n    // Make sure to set these uint256 _agreementPrice, address _clientAddress\n\n    function setPreviewMessage(bytes32 _previewMessage) public atStage(Stages.SetStrings) isProvider {\n        agreement.previewMessage = _previewMessage;\n    }\n    \n    function setFinalMessage(bytes32 _finalMessage) public atStage(Stages.SetStrings) isProvider {\n        assert(agreement.previewMessage.length > 0);\n        agreement.finalMessage = _finalMessage;\n        nextStage();\n    }\n    \n    // Client\n    function getPreviewMessage() public view atStage(Stages.ApproveOrReject) isClient returns (bytes32) {\n        return agreement.previewMessage;\n    }\n    \n    function approvePreview() atStage(Stages.ApproveOrReject) public isClient {\n        agreement.approved = true;\n        agreement.providerAddress.transfer(this.balance);\n        nextStage();\n    }\n    \n    function getFinalMessage() public view atStage(Stages.PayoutAndReveal) isClient returns (bytes32) {\n        return agreement.finalMessage;\n    }\n    \n    function getFundingAmount() public view returns(uint) {\n        return this.balance;\n    }\n\n    // Destroy Contract and send remaining balance to provider\n    function kill() public isProvider {\n        selfdestruct(agreement.providerAddress);\n    }\n\n    // Internal\n    function nextStage() internal {\n        stage = Stages(uint(stage) + 1);\n    }\n}",
  "sourcePath": "/Users/johnquiwa/Documents/projects/escrow/contracts/Escrow.sol",
  "compiler": {
    "name": "solc",
    "version": "0.4.18+commit.9cf6e910.Emscripten.clang"
  },
  "schemaVersion": "1.0.1",
  "updatedAt": "2018-02-25T19:45:26.192Z"
}