{
  "contractName": "EscrowContract",
  "abi": [
    {
      "constant": false,
      "inputs": [
        {
          "name": "_finalMessage",
          "type": "string"
        }
      ],
      "name": "setFinalMessage",
      "outputs": [],
      "payable": false,
      "stateMutability": "nonpayable",
      "type": "function"
    },
    {
      "constant": true,
      "inputs": [],
      "name": "getFundingAmount",
      "outputs": [
        {
          "name": "",
          "type": "uint256"
        }
      ],
      "payable": false,
      "stateMutability": "view",
      "type": "function"
    },
    {
      "constant": false,
      "inputs": [],
      "name": "kill",
      "outputs": [],
      "payable": false,
      "stateMutability": "nonpayable",
      "type": "function"
    },
    {
      "constant": false,
      "inputs": [
        {
          "name": "_fundingAmount",
          "type": "uint256"
        }
      ],
      "name": "contributeFunding",
      "outputs": [],
      "payable": true,
      "stateMutability": "payable",
      "type": "function"
    },
    {
      "constant": false,
      "inputs": [],
      "name": "confirmMessagesSet",
      "outputs": [],
      "payable": false,
      "stateMutability": "nonpayable",
      "type": "function"
    },
    {
      "constant": false,
      "inputs": [
        {
          "name": "_previewMessage",
          "type": "string"
        }
      ],
      "name": "setPreviewMessage",
      "outputs": [],
      "payable": false,
      "stateMutability": "nonpayable",
      "type": "function"
    },
    {
      "constant": true,
      "inputs": [],
      "name": "getFinalMessage",
      "outputs": [
        {
          "name": "",
          "type": "string"
        }
      ],
      "payable": false,
      "stateMutability": "view",
      "type": "function"
    },
    {
      "constant": false,
      "inputs": [
        {
          "name": "_approved",
          "type": "bool"
        }
      ],
      "name": "approvePreview",
      "outputs": [],
      "payable": false,
      "stateMutability": "nonpayable",
      "type": "function"
    },
    {
      "constant": true,
      "inputs": [],
      "name": "getPreviewMessage",
      "outputs": [
        {
          "name": "",
          "type": "string"
        }
      ],
      "payable": false,
      "stateMutability": "view",
      "type": "function"
    },
    {
      "constant": true,
      "inputs": [],
      "name": "stage",
      "outputs": [
        {
          "name": "",
          "type": "uint8"
        }
      ],
      "payable": false,
      "stateMutability": "view",
      "type": "function"
    },
    {
      "constant": true,
      "inputs": [],
      "name": "getStage",
      "outputs": [
        {
          "name": "",
          "type": "uint256"
        }
      ],
      "payable": false,
      "stateMutability": "view",
      "type": "function"
    },
    {
      "inputs": [
        {
          "name": "_agreementPrice",
          "type": "uint256"
        },
        {
          "name": "_clientAddress",
          "type": "address"
        }
      ],
      "payable": false,
      "stateMutability": "nonpayable",
      "type": "constructor"
    }
  ],
  "bytecode": "0x606060405260008060006101000a81548160ff0219169083600381111561002257fe5b0217905550341561003257600080fd5b604051604080610d318339810160405280805190602001909190805190602001909190505081600160000181905550806001800160006101000a81548173ffffffffffffffffffffffffffffffffffffffff021916908373ffffffffffffffffffffffffffffffffffffffff16021790555033600160020160006101000a81548173ffffffffffffffffffffffffffffffffffffffff021916908373ffffffffffffffffffffffffffffffffffffffff1602179055506000600160050160006101000a81548160ff0219169083151502179055505050610c1a806101176000396000f3006060604052600436106100af576000357c0100000000000000000000000000000000000000000000000000000000900463ffffffff1680631ed02ad3146100b4578063370c4d5b1461011157806341c0e1b51461013a5780635c5fcdd71461014f5780636e6cd1e11461016757806371ede68a1461017c5780637ec465f8146101d9578063a7f60afe14610267578063ba8028fa1461028c578063c040e6b81461031a578063fcaa766414610351575b600080fd5b34156100bf57600080fd5b61010f600480803590602001908201803590602001908080601f0160208091040260200160405190810160405280939291908181526020018383808284378201915050505050509190505061037a565b005b341561011c57600080fd5b610124610425565b6040518082815260200191505060405180910390f35b341561014557600080fd5b61014d610444565b005b61016560048080359060200190919050506104de565b005b341561017257600080fd5b61017a610553565b005b341561018757600080fd5b6101d7600480803590602001908201803590602001908080601f01602080910402602001604051908101604052809392919081815260200183838082843782019150505050505091905050610652565b005b34156101e457600080fd5b6101ec6106fd565b6040518080602001828103825283818151815260200191508051906020019080838360005b8381101561022c578082015181840152602081019050610211565b50505050905090810190601f1680156102595780820380516001836020036101000a031916815260200191505b509250505060405180910390f35b341561027257600080fd5b61028a60048080351515906020019091905050610835565b005b341561029757600080fd5b61029f61097f565b6040518080602001828103825283818151815260200191508051906020019080838360005b838110156102df5780820151818401526020810190506102c4565b50505050905090810190601f16801561030c5780820380516001836020036101000a031916815260200191505b509250505060405180910390f35b341561032557600080fd5b61032d610ab7565b6040518082600381111561033d57fe5b60ff16815260200191505060405180910390f35b341561035c57600080fd5b610364610ac9565b6040518082815260200191505060405180910390f35b600180600381111561038857fe5b6000809054906101000a900460ff1660038111156103a257fe5b1415156103ab57fe5b600160020160009054906101000a900473ffffffffffffffffffffffffffffffffffffffff1673ffffffffffffffffffffffffffffffffffffffff163373ffffffffffffffffffffffffffffffffffffffff1614151561040757fe5b8160016004019080519060200190610420929190610b35565b505050565b60003073ffffffffffffffffffffffffffffffffffffffff1631905090565b600160020160009054906101000a900473ffffffffffffffffffffffffffffffffffffffff1673ffffffffffffffffffffffffffffffffffffffff163373ffffffffffffffffffffffffffffffffffffffff161415156104a057fe5b600160020160009054906101000a900473ffffffffffffffffffffffffffffffffffffffff1673ffffffffffffffffffffffffffffffffffffffff16ff5b80600760003373ffffffffffffffffffffffffffffffffffffffff1673ffffffffffffffffffffffffffffffffffffffff168152602001908152602001600020819055506001600001543073ffffffffffffffffffffffffffffffffffffffff16311015156105505761054f610aea565b5b50565b600180600381111561056157fe5b6000809054906101000a900460ff16600381111561057b57fe5b14151561058457fe5b600160020160009054906101000a900473ffffffffffffffffffffffffffffffffffffffff1673ffffffffffffffffffffffffffffffffffffffff163373ffffffffffffffffffffffffffffffffffffffff161415156105e057fe5b60006001600301805460018160011615610100020316600290049050118015610622575060006001600401805460018160011615610100020316600290049050115b151561062a57fe5b60018060050160006101000a81548160ff02191690831515021790555061064f610aea565b50565b600180600381111561066057fe5b6000809054906101000a900460ff16600381111561067a57fe5b14151561068357fe5b600160020160009054906101000a900473ffffffffffffffffffffffffffffffffffffffff1673ffffffffffffffffffffffffffffffffffffffff163373ffffffffffffffffffffffffffffffffffffffff161415156106df57fe5b81600160030190805190602001906106f8929190610b35565b505050565b610705610bb5565b600380600381111561071357fe5b6000809054906101000a900460ff16600381111561072d57fe5b14151561073657fe5b6001800160009054906101000a900473ffffffffffffffffffffffffffffffffffffffff1673ffffffffffffffffffffffffffffffffffffffff163373ffffffffffffffffffffffffffffffffffffffff1614151561079157fe5b60016004018054600181600116156101000203166002900480601f01602080910402602001604051908101604052809291908181526020018280546001816001161561010002031660029004801561082a5780601f106107ff5761010080835404028352916020019161082a565b820191906000526020600020905b81548152906001019060200180831161080d57829003601f168201915b505050505091505090565b600280600381111561084357fe5b6000809054906101000a900460ff16600381111561085d57fe5b14151561086657fe5b6001800160009054906101000a900473ffffffffffffffffffffffffffffffffffffffff1673ffffffffffffffffffffffffffffffffffffffff163373ffffffffffffffffffffffffffffffffffffffff161415156108c157fe5b81600160050160006101000a81548160ff021916908315150217905550600160050160009054906101000a900460ff161561097b57600160020160009054906101000a900473ffffffffffffffffffffffffffffffffffffffff1673ffffffffffffffffffffffffffffffffffffffff166108fc3073ffffffffffffffffffffffffffffffffffffffff16319081150290604051600060405180830381858888f19350505050151561097257600080fd5b61097a610aea565b5b5050565b610987610bb5565b600280600381111561099557fe5b6000809054906101000a900460ff1660038111156109af57fe5b1415156109b857fe5b6001800160009054906101000a900473ffffffffffffffffffffffffffffffffffffffff1673ffffffffffffffffffffffffffffffffffffffff163373ffffffffffffffffffffffffffffffffffffffff16141515610a1357fe5b60016003018054600181600116156101000203166002900480601f016020809104026020016040519081016040528092919081815260200182805460018160011615610100020316600290048015610aac5780601f10610a8157610100808354040283529160200191610aac565b820191906000526020600020905b815481529060010190602001808311610a8f57829003601f168201915b505050505091505090565b6000809054906101000a900460ff1681565b60008060009054906101000a900460ff166003811115610ae557fe5b905090565b60016000809054906101000a900460ff166003811115610b0657fe5b016003811115610b1257fe5b6000806101000a81548160ff02191690836003811115610b2e57fe5b0217905550565b828054600181600116156101000203166002900490600052602060002090601f016020900481019282601f10610b7657805160ff1916838001178555610ba4565b82800160010185558215610ba4579182015b82811115610ba3578251825591602001919060010190610b88565b5b509050610bb19190610bc9565b5090565b602060405190810160405280600081525090565b610beb91905b80821115610be7576000816000905550600101610bcf565b5090565b905600a165627a7a72305820f4dd49d7c7239ded0d73ba259140e3901886c05561cbf0b07978bee9e7dcbd480029",
  "source": "pragma solidity 0.4.18;\n\n\ncontract EscrowContract {\n\n    // Stage Management\n    enum Stages {\n        Funding,\n        SetStrings,\n        ApproveOrReject,\n        PayoutAndReveal\n    }\n    \n    Stages public stage = Stages.Funding;\n    \n    modifier isProvider() {\n        assert(msg.sender == agreement.providerAddress);\n        _;\n    }\n    \n    modifier isClient() {\n        assert(msg.sender == agreement.clientAddress);\n        _;\n    }\n\n    modifier atStage(Stages _stage) {\n        assert(stage == _stage);\n        _;\n    }\n    \n    modifier transitionNext() {\n        _;\n        nextStage();\n    }\n\n    // Agreement\n    struct Agreement {\n        uint256 agreementPrice;\n        address clientAddress;\n        address providerAddress;\n        string previewMessage;\n        string finalMessage;\n        bool approved;\n    }\n    \n    Agreement agreement;\n    \n    mapping (address => uint256) funders;\n\n\n    // Contract\n    function EscrowContract(uint256 _agreementPrice, address _clientAddress) public {\n        agreement.agreementPrice = _agreementPrice;\n        agreement.clientAddress = _clientAddress;\n        agreement.providerAddress = msg.sender;\n        agreement.approved = false;\n    }\n    \n    // Funding\n    function contributeFunding(uint256 _fundingAmount) public payable {\n        funders[msg.sender] = _fundingAmount;\n        if(this.balance >= agreement.agreementPrice) {\n            nextStage();\n        }\n    }\n\n    // Provider\n    function setPreviewMessage(string _previewMessage) public atStage(Stages.SetStrings) isProvider {\n        agreement.previewMessage = _previewMessage;\n    }\n    \n    function setFinalMessage(string _finalMessage) public atStage(Stages.SetStrings) isProvider {\n        agreement.finalMessage = _finalMessage;\n    }\n    \n    function confirmMessagesSet() public atStage(Stages.SetStrings) isProvider {\n        assert(bytes(agreement.previewMessage).length > 0 && bytes(agreement.finalMessage).length > 0);\n        agreement.approved = true;\n        nextStage();\n    }\n    \n    // Client\n    function getPreviewMessage() public view atStage(Stages.ApproveOrReject) isClient returns (string) {\n        return agreement.previewMessage;\n    }\n    \n    function approvePreview(bool _approved) atStage(Stages.ApproveOrReject) public isClient {\n        agreement.approved = _approved;\n        if (agreement.approved) {\n            agreement.providerAddress.transfer(this.balance);\n            nextStage();\n        }\n    }\n    \n    function getFinalMessage() public view atStage(Stages.PayoutAndReveal) isClient returns (string) {\n        return agreement.finalMessage;\n    }\n\n    // Abstractions - Getters\n    function getStage() public view returns(uint) {\n        return uint(stage);\n    }\n    \n    function getFundingAmount() public view returns(uint) {\n        return this.balance;\n    }\n\n    // Destroy Contract and send remaining balance to provider\n    function kill() public isProvider {\n        selfdestruct(agreement.providerAddress);\n    }\n\n    // Internal\n    function nextStage() internal {\n        stage = Stages(uint(stage) + 1);\n    }\n}",
  "sourcePath": "/Users/johnquiwa/Documents/projects/escrow/contracts/Escrow.sol",
  "compiler": {
    "name": "solc",
    "version": "0.4.18+commit.9cf6e910.Emscripten.clang"
  },
  "schemaVersion": "1.0.1",
  "updatedAt": "2017-12-25T19:21:35.895Z"
}